:020000040800F2
:10000000800C00208901000891010008930100087C
:100010009501000897010008990100080000000000
:100020000000000000000000000000009B0100082C
:100030009D010008000000009F010008A1010008C8
:10004000A3010008A3010008A3010008A301000800
:10005000A3010008A3010008A3010008A3010008F0
:10006000A3010008A3010008A3010008A3010008E0
:10007000A3010008A3010008A3010008A3010008D0
:10008000A3010008A3010008A3010008A3010008C0
:10009000A3010008A3010008A3010008A3010008B0
:1000A000A3010008A3010008A3010008A3010008A0
:1000B00049050008A3010008A3010008A3010008E6
:1000C000A3010008A3010008A3010008A301000880
:1000D000A30100089D060008ED0600083D07000882
:1000E000A3010008A3010008A301000800F002F822
:1000F00000F03AF80AA090E8000C82448344AAF188
:100100000107DA4501D100F02FF8AFF2090EBAE885
:100110000F0013F0010F18BFFB1A43F0010318473B
:100120004C1100006C110000103A24BF78C878C14F
:10013000FAD8520724BF30C830C144BF04680C60ED
:10014000704700000023002400250026103A28BF35
:1001500078C1FBD8520728BF30C148BF0B60704739
:100160001FB51FBD10B510BD00F0B8F81146FFF760
:10017000F7FF00F04BFB00F0EAF803B4FFF7F2FFE3
:1001800003BC00F003FB0000094880470948004712
:10019000FEE7FEE7FEE7FEE7FEE7FEE7FEE7FEE737
:1001A000FEE7FEE704480549054A064B7047000094
:1001B000E9040008ED00000880060020800C002003
:1001C0008008002080080020704700000FB4044918
:1001D00010B503AA029800F02BF810BC5DF814FBD0
:1001E000080000204FF000020429C0F0128010F037
:1001F000030C00F03180CCF1040CBCF1020F18BFED
:1002000000F8012BA8BF20F8022BA1EB0C0100F095
:1002100023B85FEAC17C24BF00F8012B00F8012B52
:1002200048BF00F8012B7047704770477047704710
:10023000074B70B50D467B4400F039F8044628465C
:1002400000F048F810B14FF0FF3070BD204670BD8F
:100250005B0500004FF0000200B513469446964639
:10026000203922BFA0E80C50A0E80C50B1F12001C9
:10027000BFF4F7AF090728BFA0E80C5048BF0CC077
:100280005DF804EB890028BF40F8042B08BF7047D5
:1002900048BF20F8022B11F0804F18BF00F8012B47
:1002A0007047000001694A1C02610878704700B578
:1002B0008FB0CDE901310021059105497944CDE99F
:1002C00003101146684600F02EF80FB000BD000084
:1002D000E5FFFFFF007B00F080007047754600F0EF
:1002E0003FF8AE4605006946534620F007008546B4
:1002F00018B020B5FFF756FFBDE820404FF00006CC
:100300004FF000074FF000084FF0000B21F00701FD
:10031000AC46ACE8C009ACE8C009ACE8C009ACE840
:10032000C0098D4670472DE9F04106460024D6E904
:100330000170F5688046304603E04146B847641CCA
:100340003046A8470028F8D12046BDE8F08110B516
:100350000446AFF300802046BDE81040FFF70DBF14
:10036000004870471C06002000BF0549098801F0BD
:1003700080010029F9D00249091D0880704700005A
:100380000038014000BF0549098801F080010029BB
:10039000F9D00249091D0880704700000044004060
:1003A00000BF0549098801F080010029F9D0024900
:1003B000091D0880704700000048004000B5024653
:1003C00003E012F8010BFFF7CFFF10780028F8D1F7
:1003D00000BD00B5024603E012F8010BFFF7D2FFA3
:1003E00010780028F8D100BD00B5024603E012F8ED
:1003F000010BFFF7D5FF10780028F8D100BD10B52C
:1004000000F002F810BD00000CB500200190009033
:100410003348006840F480303149086000BF3048FC
:10042000006800F4003000900198401C0190009892
:1004300018B90198B0F5A06FF1D12948006800F40F
:10044000003010B10120009001E0002000900098E1
:10045000012843D12348006840F01000214908607A
:100460000846006820F0030008600846006840F075
:10047000020008601A484068194948600846406808
:1004800048600846406840F480604860084640681C
:1004900020F47C1048600846406840F4E81048604A
:1004A0000846006840F08070086000BF0C48006893
:1004B00000F000700028F9D00948406820F00300DF
:1004C000074948600846406840F00200486000BFA5
:1004D0000348406800F00C000828F9D10CBD00006A
:1004E000001002400020024010B51348006840F0A0
:1004F00001001149086008464068104908400E494B
:100500004860084600680E4908400B4908600846E4
:10051000006820F4802008600846406820F4FE004F
:1005200048604FF41F008860FFF769FF4FF00060DC
:100530000449086010BD0000001002400000FFF8F0
:10054000FFFFF6FE08ED00E0154801880088401E18
:10055000134A108029B110460088012801D11149A1
:100560000880114801880088401E0F4A108029B178
:1005700010460088012801D10C4908800C480188E8
:100580000088401E0A4A108029B1104600880128C0
:1005900001D10849088000204FF08041088270474F
:1005A0000400002000000020120000200E000020A7
:1005B000180000201400002010B509480088012808
:1005C0000CD108A0FFF7FAFE0020054908800B496E
:1005D00008804FF400710A48FFF704FE10BD0000C8
:1005E0000000002075736172743120676574206F9C
:1005F0006E652064617461210D0A00000200002014
:100600001C00002010B50948008801280CD108A062
:10061000FFF7DFFE0020054908800B4908804FF4F2
:1006200000710A48FFF7DEFD10BD00000E0000203B
:1006300075736172743220676574206F6E65206413
:10064000617461210D0A0000100000201C020020CE
:1006500010B50948008801280CD108A0FFF7C4FE96
:100660000020054908800B4908804FF400710A48B2
:10067000FFF7B8FD10BD0000140000207573617213
:10068000743320676574206F6E6520646174612126
:100690000D0A0000160000201C0400200E490988E5
:1006A00001F02001B1B10C49091D0988C8B20B49FC
:1006B000098879B90A490988B1F5007F0ADA084939
:1006C0000A880988491C064B198006498854052167
:1006D000054A1180704700000038014000000020EA
:1006E000020000201C000020040000200E490988A0
:1006F00001F02001B1B10C49091D0988C8B20B49AC
:10070000098879B90A490988B1F5007F0ADA0849E8
:100710000A880988491C064B198006498854052116
:10072000054A118070470000004400400E00002080
:10073000100000201C020020120000200E49098831
:1007400001F02001B1B10C49091D0988C8B20B495B
:10075000098879B90A490988B1F5007F0ADA084998
:100760000A880988491C064B1980064988540521C6
:10077000054A118070470000004800401400002026
:10078000160000201C04002018000020014600BFB5
:100790000020704700BF054A128802F04002002A7C
:1007A000F9D0C2B2014B1B1D1A80704700380140BE
:1007B00001461548C06940F00100134AD06141F676
:1007C0001F409204108501EB81004FF6FF7202EA90
:1007D00040004FF0804290851046808940F0010033
:1007E00090811C200122824043099B0003F1E023F9
:1007F000C3F8002100BF4FF08040008840F00100A6
:100800004FF0804210807047001002400520FFF733
:10081000CFFF4FF4964000F0B5F94FF4E13000F00F
:1008200013F84FF4E13000F0DDF805A0FFF7CEFC3F
:1008300005E0FFF7C1FEFFF7E5FEFFF709FFF8E768
:1008400073746172740D0A002DE9F05F04465F480D
:10085000806940F004005D4988615D48006820F4CB
:1008600070605B4908600846006840F430600860CA
:100870000846006820F4704008600846006840F4AC
:10088000004008605148C06940F400304F49C861D9
:100890005048008820F480504E490880081D008888
:1008A00020F44050091D0880081F008840F008000F
:1008B000091F08800846008840F0040008800846A8
:1008C000008840F020000880200100F06FFB804687
:1008D0004146414800F088FA0546284600F046FBAC
:1008E00086B2304600F062FB8046294600F03EFCAE
:1008F00007464FF6FF7000EA06164FF08341384670
:1009000000F068FB8146304600F050FB82464946C5
:1009100000F008FA804600F029FB2E49091F0880E4
:10092000262005224FF0020CE0461346C3F1070BC8
:10093000BBF1040F02D94FF0040B01E0C3F1070B28
:10094000DA4603F1040BBBF1070F02D24FF0000BA4
:1009500001E0A3F1030BD9464FF0010B0BFA0AFBA0
:10096000ABF1010B0BEA0C0B0BFA09FB4FF0010E7C
:100970000EFA09FEAEF1010E0EEA080E4BEA0E0168
:1009800000BF002809DA0A074FEA126C134A00F088
:100990000F031B1F02F803C003E00A07130E104ADF
:1009A000135400BF262000F01F020121914042098C
:1009B000920002F1E022C2F8001100BF0548008851
:1009C00040F4005003490880BDE8F09F0010024049
:1009D000000801400C4400404054094C18ED00E070
:1009E00000E400E02DE9F05F04466048806940F0D3
:1009F00008005E4988615E48006820F470605C49C8
:100A000008600846006840F43060086008460068E6
:100A100020F4704008600846006840F40040086018
:100A20005248C06940F480205049C861514800884C
:100A300020F480504F490880081D008820F4405061
:100A4000091D0880081F008840F00800091F088061
:100A50000846008840F0040008800846008840F0FE
:100A600020000880200100F0A1FA8046414642485B
:100A700000F0BAF90546284600F078FA86B230460A
:100A800000F094FA8046294600F070FB07464FF6C6
:100A9000FF7000EA06164FF08341384600F09AFADC
:100AA0008146304600F082FA8246494600F03AF923
:100AB000804600F05BFA2F49091F08802720052295
:100AC0004FF0020C4FF003081346C3F1070BBBF1C4
:100AD000040F02D94FF0040B01E0C3F1070BDA4613
:100AE00003F1040BBBF1070F02D24FF0000B01E042
:100AF000A3F1030BD9464FF0010B0BFA0AFBABF144
:100B0000010B0BEA0C0B0BFA09FB4FF0010E0EFA6E
:100B100009FEAEF1010E0EEA080E4BEA0E0100BF0F
:100B2000002809DA0A074FEA126C144A00F00F0392
:100B30001B1F02F803C003E00A07130E104A1354E8
:100B400000BF272000F01F020121914042099200BE
:100B500002F1E022C2F8001100BF0648008840F40C
:100B6000005004490880BDE8F09F000000100240DA
:100B7000040C01400C4800404054094C18ED00E0C2
:100B800000E400E02DE9F05F04466048806940F031
:100B900004005E4988615E48006820F0F0005C490E
:100BA00008600846006840F0B00008600846006829
:100BB00020F4706008600846006840F40060086037
:100BC0005248806940F4804050498861514800880B
:100BD00020F480504F490880081D008820F44050C0
:100BE000091D0880081F008840F00800091F0880C0
:100BF0000846008840F0040008800846008840F05D
:100C000020000880200100F0D1F98046414642488A
:100C100000F0EAF80546284600F0A8F986B230460A
:100C200000F0C4F98046294600F0A0FA07464FF6C6
:100C3000FF7000EA06164FF08341384600F0CAF90B
:100C40008146304600F0B2F98246494600F06AF823
:100C5000804600F08BF92F49091F088025200522C6
:100C60004FF0020C4FF001081346C3F1070BBBF124
:100C7000040F02D94FF0040B01E0C3F1070BDA4671
:100C800003F1040BBBF1070F02D24FF0000B01E0A0
:100C9000A3F1030BD9464FF0010B0BFA0AFBABF1A2
:100CA000010B0BEA0C0B0BFA09FB4FF0010E0EFACD
:100CB00009FEAEF1010E0EEA080E4BEA0E0100BF6E
:100CC000002809DA0A074FEA126C144A00F00F03F1
:100CD0001B1F02F803C003E00A07130E104A135447
:100CE00000BF252000F01F0201219140420992001F
:100CF00002F1E022C2F8001100BF0648008840F46B
:100D0000005004490880BDE8F09F00000010024038
:100D1000040801400C3801404054894C18ED00E0B3
:100D200000E400E090EA010F48BF81F0004100F1CB
:100D30002E82421A3CBF801A89184FEAD0524FF0D7
:100D40007F4C1CEA410FA2EBD15318BF9CEA026F03
:100D500000F03B804FF0004C4CEA00204CEA0121AF
:100D600021FA03FC10EB0C0C1ED202F1FF325FEAF9
:100D70001C2040EBC25038BF70471CF07F0F4FEA79
:100D8000400C18BFBCF17F4F38BF7047C3F1200340
:100D9000994008BF20F00100BCF17F4F38BF704779
:100DA000A0F1C04000F0DDB94FEA3C00000A40EB82
:100DB000C25028BF1CF0FF0F4FEA400CE6D018BF0E
:100DC000BCF17F4F38BF7047EAE79CEA026F05D05D
:100DD00010EA5C0F08BF00F00040704710B500F04B
:100DE0007AF900BF64FBBE3E4FF47F0C1CEAD012C0
:100DF0001EBF1CEAD11392EA0C0F93EA0C0F00F00D
:100E0000858090EA010F48BF42F4807240F4000CE4
:100E100041F400002CF07F4120F07F4000B581427A
:100E2000A2EB03020FF2081CACEB504EC0F1000025
:100E30009EF800E04FEA4E0E00FB0EFC38BF490062
:100E40004FEA2C1C02F5FA020CFB0EF34FEACE1E01
:100E50004FEA112C4FEAC1210EEB635E42EB2242B6
:100E60000EFB0CFC4FEA1C5300FB03114FEA112C44
:100E70004FEA01310EFB0CFC4FEADC4C00FB0C117D
:100E8000C14228BF09184CEB03335DF804EB10EBAB
:100E9000410143EBC250B2F57C0F38BF704729D5F2
:100EA00012F0F00F1CBF00F1C04000F0004070478E
:100EB000008182838485868788898B8C8D8E8F9133
:100EC0009293959697999A9C9D9FA0A2A3A5A7A857
:100ED000AAACAEB0B2B3B5B7B9BCBEC0C2C5C7C983
:100EE000CCCED1D4D7D9DCDFE2E6E9ECF0F3F7FAE7
:100EF000FE0000004FEA400C0CF1807CBCF17E4FFC
:100F000028BF7047B0F1C04000F02BB990EA010F44
:100F10000CEAD11348BF42F48072624538BF634582
:100F200007D213F47F0F16D080EA010000F00040D2
:100F3000704710B500F0CFF8097EFC3E00F005B810
:100F400080EA010000F00040704780EA010000F0F4
:100F5000004000F006B912F47F0F04BF024870474A
:100F600080EA010000F0FDB80000C07FC10DD1F1A2
:100F70009E0206DB4FEA002343F0004323FA02F00F
:100F80007047004207D54FEA4001B1F1FE4F02D24F
:100F90004FF00000704710B500F09DF84992248092
:100FA000002070476FEA200070470000B0FA80F31D
:100FB00010FA03F2C3F19D030AD0D90501EB122008
:100FC000530638BF704700F1010008BF20F0010050
:100FD000704700004FF47F0C1CEAD0121EBF1CEAC1
:100FE000D11392EA0C0F93EA0C0F00F0478090EABD
:100FF000010F48BF42F480724FF0004C4CEA0020D1
:101000004CEA012102EB0302A0FB0113A2F500024E
:10101000002918BF43F001035B0028BF4FEA3303E8
:1010200042EB22425FEA132C4CEBC2502EBFBCEBCA
:10103000436FB2F57C0F70474FEA036CBCF1004F71
:1010400008BF20F00100B2F57C0F38BF70470BD508
:1010500082F0FF0212F5803FC8BF704700F1C04028
:10106000D8BF00F00040704700F5000C5FEA4C0C60
:1010700048BF7047B0F1C04000F073B890EA010F6C
:101080000CEAD11348BF42F48072624538BF634511
:1010900004D280EA010000F00040704710B500F073
:1010A0001AF800BF8900013E00F007B800F009B847
:1010B0005FEA410C5FEA1C6C08D080EA010000F096
:1010C00050B85FEA400C5FEA1C6CF6D14FF000406C
:1010D000A0F5800070470EF1020E2EF0030E5EF8B0
:1010E000044B244204D44FEA4102B2F17F4F11D89D
:1010F0004FEA4003B3F17F4F0CD80ED14FEAD07CBA
:10110000B2F17F4F0CEB4C0C0CF1020C08BF4CEB16
:10111000D17C04E04FF0080C01E04FEAD17C0CEBED
:101120004C0324FA03F404F00704B4F1040C06D2CF
:101130000EEB840CBDE810404CF0010C6047DFE87A
:101140000CF0070802024FF00040A0F5800010BD2F
:101150000846420018BFD2F1807288BF00F00040FC
:1011600010BDFF2141EAD050C005704780F000401B
:1011700090EA010F7FF5DDAD81F0004100F007B886
:1011800090EA010F48BF81F000413FF5D2AD421A0D
:1011900004D882F00042A0EB020011444FEAD05282
:1011A0004FF07F4C1CEA410FA2EBD15318BF9CEAD1
:1011B000026F4AD04FF0004C4CEA00204CEA01216B
:1011C00021FA03FCB0EB0C0C0FD412F0FE0F36D05A
:1011D0005FEA4C001DD5001240EBC25038BF70478B
:1011E0001CF03F0F18BF70470BE0A2F101025FEA4D
:1011F0001C2040EBC25038BF70471CF07F0F18BF57
:101200007047C3F12003994014BF401E20F0010035
:10121000704780084FEA122308BF7047B0FA80FC7D
:10122000A2EB0C02CCF1280C60FA0CF093EA122F1E
:1012300004BF00EBC25070474FEAC3707047130AF7
:101240005FEADC1008BF7047F6E79CEA026F04D043
:1012500010EA5C0F08BF0020704710B5FFF73BFF96
:1012600040DFF63E81F00040704700008C1200081D
:10127000000000201C00000028010008A81200083F
:101280001C000020640C0000440100080000000065
:10129000000000000000000000000000000000004E
:0812A000000000000000000046
:04000005080000ED02
:00000001FF
